{
    "_format": "hh-sol-artifact-1",
    "contractName": "SibylAccess",
    "sourceName": "contracts/SibylAccess.sol",
    "abi": [
        {
            "inputs": [],
            "stateMutability": "payable",
            "type": "constructor"
        },
        {
            "anonymous": false,
            "inputs": [
                {
                    "indexed": true,
                    "internalType": "address",
                    "name": "owner",
                    "type": "address"
                },
                {
                    "indexed": true,
                    "internalType": "address",
                    "name": "approved",
                    "type": "address"
                },
                {
                    "indexed": true,
                    "internalType": "uint256",
                    "name": "tokenId",
                    "type": "uint256"
                }
            ],
            "name": "Approval",
            "type": "event"
        },
        {
            "anonymous": false,
            "inputs": [
                {
                    "indexed": true,
                    "internalType": "address",
                    "name": "owner",
                    "type": "address"
                },
                {
                    "indexed": true,
                    "internalType": "address",
                    "name": "operator",
                    "type": "address"
                },
                {
                    "indexed": false,
                    "internalType": "bool",
                    "name": "approved",
                    "type": "bool"
                }
            ],
            "name": "ApprovalForAll",
            "type": "event"
        },
        {
            "anonymous": false,
            "inputs": [
                {
                    "indexed": true,
                    "internalType": "address",
                    "name": "previousOwner",
                    "type": "address"
                },
                {
                    "indexed": true,
                    "internalType": "address",
                    "name": "newOwner",
                    "type": "address"
                }
            ],
            "name": "OwnershipTransferred",
            "type": "event"
        },
        {
            "anonymous": false,
            "inputs": [
                {
                    "indexed": true,
                    "internalType": "address",
                    "name": "from",
                    "type": "address"
                },
                {
                    "indexed": true,
                    "internalType": "address",
                    "name": "to",
                    "type": "address"
                },
                {
                    "indexed": true,
                    "internalType": "uint256",
                    "name": "tokenId",
                    "type": "uint256"
                }
            ],
            "name": "Transfer",
            "type": "event"
        },
        {
            "inputs": [
                {
                    "internalType": "address",
                    "name": "to",
                    "type": "address"
                },
                {
                    "internalType": "uint256",
                    "name": "tokenId",
                    "type": "uint256"
                }
            ],
            "name": "approve",
            "outputs": [],
            "stateMutability": "nonpayable",
            "type": "function"
        },
        {
            "inputs": [
                {
                    "internalType": "address",
                    "name": "owner",
                    "type": "address"
                }
            ],
            "name": "balanceOf",
            "outputs": [
                {
                    "internalType": "uint256",
                    "name": "",
                    "type": "uint256"
                }
            ],
            "stateMutability": "view",
            "type": "function"
        },
        {
            "inputs": [
                {
                    "internalType": "uint256",
                    "name": "tokenId",
                    "type": "uint256"
                }
            ],
            "name": "getApproved",
            "outputs": [
                {
                    "internalType": "address",
                    "name": "",
                    "type": "address"
                }
            ],
            "stateMutability": "view",
            "type": "function"
        },
        {
            "inputs": [
                {
                    "internalType": "address",
                    "name": "owner",
                    "type": "address"
                },
                {
                    "internalType": "address",
                    "name": "operator",
                    "type": "address"
                }
            ],
            "name": "isApprovedForAll",
            "outputs": [
                {
                    "internalType": "bool",
                    "name": "",
                    "type": "bool"
                }
            ],
            "stateMutability": "view",
            "type": "function"
        },
        {
            "inputs": [],
            "name": "isMintEnabled",
            "outputs": [
                {
                    "internalType": "bool",
                    "name": "",
                    "type": "bool"
                }
            ],
            "stateMutability": "view",
            "type": "function"
        },
        {
            "inputs": [],
            "name": "maxPerWallet",
            "outputs": [
                {
                    "internalType": "uint256",
                    "name": "",
                    "type": "uint256"
                }
            ],
            "stateMutability": "view",
            "type": "function"
        },
        {
            "inputs": [],
            "name": "maxSupply",
            "outputs": [
                {
                    "internalType": "uint256",
                    "name": "",
                    "type": "uint256"
                }
            ],
            "stateMutability": "view",
            "type": "function"
        },
        {
            "inputs": [
                {
                    "internalType": "uint256",
                    "name": "_quantity",
                    "type": "uint256"
                }
            ],
            "name": "mint",
            "outputs": [],
            "stateMutability": "payable",
            "type": "function"
        },
        {
            "inputs": [],
            "name": "mintPrice",
            "outputs": [
                {
                    "internalType": "uint256",
                    "name": "",
                    "type": "uint256"
                }
            ],
            "stateMutability": "view",
            "type": "function"
        },
        {
            "inputs": [],
            "name": "name",
            "outputs": [
                {
                    "internalType": "string",
                    "name": "",
                    "type": "string"
                }
            ],
            "stateMutability": "view",
            "type": "function"
        },
        {
            "inputs": [],
            "name": "owner",
            "outputs": [
                {
                    "internalType": "address",
                    "name": "",
                    "type": "address"
                }
            ],
            "stateMutability": "view",
            "type": "function"
        },
        {
            "inputs": [
                {
                    "internalType": "uint256",
                    "name": "tokenId",
                    "type": "uint256"
                }
            ],
            "name": "ownerOf",
            "outputs": [
                {
                    "internalType": "address",
                    "name": "",
                    "type": "address"
                }
            ],
            "stateMutability": "view",
            "type": "function"
        },
        {
            "inputs": [],
            "name": "renounceOwnership",
            "outputs": [],
            "stateMutability": "nonpayable",
            "type": "function"
        },
        {
            "inputs": [
                {
                    "internalType": "address",
                    "name": "from",
                    "type": "address"
                },
                {
                    "internalType": "address",
                    "name": "to",
                    "type": "address"
                },
                {
                    "internalType": "uint256",
                    "name": "tokenId",
                    "type": "uint256"
                }
            ],
            "name": "safeTransferFrom",
            "outputs": [],
            "stateMutability": "nonpayable",
            "type": "function"
        },
        {
            "inputs": [
                {
                    "internalType": "address",
                    "name": "from",
                    "type": "address"
                },
                {
                    "internalType": "address",
                    "name": "to",
                    "type": "address"
                },
                {
                    "internalType": "uint256",
                    "name": "tokenId",
                    "type": "uint256"
                },
                {
                    "internalType": "bytes",
                    "name": "data",
                    "type": "bytes"
                }
            ],
            "name": "safeTransferFrom",
            "outputs": [],
            "stateMutability": "nonpayable",
            "type": "function"
        },
        {
            "inputs": [
                {
                    "internalType": "address",
                    "name": "operator",
                    "type": "address"
                },
                {
                    "internalType": "bool",
                    "name": "approved",
                    "type": "bool"
                }
            ],
            "name": "setApprovalForAll",
            "outputs": [],
            "stateMutability": "nonpayable",
            "type": "function"
        },
        {
            "inputs": [
                {
                    "internalType": "bool",
                    "name": "_isMintEnabled",
                    "type": "bool"
                }
            ],
            "name": "setMintEnabled",
            "outputs": [],
            "stateMutability": "nonpayable",
            "type": "function"
        },
        {
            "inputs": [
                {
                    "internalType": "bytes4",
                    "name": "interfaceId",
                    "type": "bytes4"
                }
            ],
            "name": "supportsInterface",
            "outputs": [
                {
                    "internalType": "bool",
                    "name": "",
                    "type": "bool"
                }
            ],
            "stateMutability": "view",
            "type": "function"
        },
        {
            "inputs": [],
            "name": "symbol",
            "outputs": [
                {
                    "internalType": "string",
                    "name": "",
                    "type": "string"
                }
            ],
            "stateMutability": "view",
            "type": "function"
        },
        {
            "inputs": [
                {
                    "internalType": "uint256",
                    "name": "tokenId",
                    "type": "uint256"
                }
            ],
            "name": "tokenURI",
            "outputs": [
                {
                    "internalType": "string",
                    "name": "",
                    "type": "string"
                }
            ],
            "stateMutability": "view",
            "type": "function"
        },
        {
            "inputs": [],
            "name": "totalSupply",
            "outputs": [
                {
                    "internalType": "uint256",
                    "name": "",
                    "type": "uint256"
                }
            ],
            "stateMutability": "view",
            "type": "function"
        },
        {
            "inputs": [
                {
                    "internalType": "address",
                    "name": "from",
                    "type": "address"
                },
                {
                    "internalType": "address",
                    "name": "to",
                    "type": "address"
                },
                {
                    "internalType": "uint256",
                    "name": "tokenId",
                    "type": "uint256"
                }
            ],
            "name": "transferFrom",
            "outputs": [],
            "stateMutability": "nonpayable",
            "type": "function"
        },
        {
            "inputs": [
                {
                    "internalType": "address",
                    "name": "newOwner",
                    "type": "address"
                }
            ],
            "name": "transferOwnership",
            "outputs": [],
            "stateMutability": "nonpayable",
            "type": "function"
        },
        {
            "inputs": [
                {
                    "internalType": "address",
                    "name": "",
                    "type": "address"
                }
            ],
            "name": "walletMints",
            "outputs": [
                {
                    "internalType": "uint256",
                    "name": "",
                    "type": "uint256"
                }
            ],
            "stateMutability": "view",
            "type": "function"
        },
        {
            "inputs": [],
            "name": "withdrawBalance",
            "outputs": [],
            "stateMutability": "nonpayable",
            "type": "function"
        },
        {
            "inputs": [],
            "name": "withdrawWallet",
            "outputs": [
                {
                    "internalType": "address payable",
                    "name": "",
                    "type": "address"
                }
            ],
            "stateMutability": "view",
            "type": "function"
        }
    ],
    "bytecode": "0x60806040526040518060400160405280600a81526020017f536962796c204d696e64000000000000000000000000000000000000000000008152506040518060400160405280600481526020017f5342594c00000000000000000000000000000000000000000000000000000000815250816000908162000081919062000487565b50806001908162000093919062000487565b505050620000b6620000aa6200013f60201b60201c565b6200014760201b60201c565b66b1a2bc2ec50000600781905550600060088190555061012c6009819055506003600a819055506000600b60006101000a81548160ff02191690831515021790555033600b60016101000a81548173ffffffffffffffffffffffffffffffffffffffff021916908373ffffffffffffffffffffffffffffffffffffffff1602179055506200056e565b600033905090565b6000600660009054906101000a900473ffffffffffffffffffffffffffffffffffffffff16905081600660006101000a81548173ffffffffffffffffffffffffffffffffffffffff021916908373ffffffffffffffffffffffffffffffffffffffff1602179055508173ffffffffffffffffffffffffffffffffffffffff168173ffffffffffffffffffffffffffffffffffffffff167f8be0079c531659141344cd1fd0a4f28419497f9722a3daafe3b4186f6b6457e060405160405180910390a35050565b600081519050919050565b7f4e487b7100000000000000000000000000000000000000000000000000000000600052604160045260246000fd5b7f4e487b7100000000000000000000000000000000000000000000000000000000600052602260045260246000fd5b600060028204905060018216806200028f57607f821691505b602082108103620002a557620002a462000247565b5b50919050565b60008190508160005260206000209050919050565b60006020601f8301049050919050565b600082821b905092915050565b6000600883026200030f7fffffffffffffffffffffffffffffffffffffffffffffffffffffffffffffffff82620002d0565b6200031b8683620002d0565b95508019841693508086168417925050509392505050565b6000819050919050565b6000819050919050565b600062000368620003626200035c8462000333565b6200033d565b62000333565b9050919050565b6000819050919050565b620003848362000347565b6200039c62000393826200036f565b848454620002dd565b825550505050565b600090565b620003b3620003a4565b620003c081848462000379565b505050565b5b81811015620003e857620003dc600082620003a9565b600181019050620003c6565b5050565b601f82111562000437576200040181620002ab565b6200040c84620002c0565b810160208510156200041c578190505b620004346200042b85620002c0565b830182620003c5565b50505b505050565b600082821c905092915050565b60006200045c600019846008026200043c565b1980831691505092915050565b600062000477838362000449565b9150826002028217905092915050565b62000492826200020d565b67ffffffffffffffff811115620004ae57620004ad62000218565b5b620004ba825462000276565b620004c7828285620003ec565b600060209050601f831160018114620004ff5760008415620004ea578287015190505b620004f6858262000469565b86555062000566565b601f1984166200050f86620002ab565b60005b82811015620005395784890151825560018201915060208501945060208101905062000512565b8683101562000559578489015162000555601f89168262000449565b8355505b6001600288020188555050505b505050505050565b61312c806200057e6000396000f3fe6080604052600436106101815760003560e01c8063715018a6116100d1578063b88d4fde1161008a578063e985e9c511610064578063e985e9c514610551578063f0293fd31461058e578063f2fde38b146105cb578063f46a04eb146105f457610181565b8063b88d4fde146104c0578063c87b56dd146104e9578063d5abeb011461052657610181565b8063715018a6146103e357806385d178f4146103fa5780638da5cb5b1461042557806395d89b4114610450578063a0712d681461047b578063a22cb4651461049757610181565b8063346de50a1161013e5780635fd8c710116101185780635fd8c710146103275780636352211e1461033e5780636817c76c1461037b57806370a08231146103a657610181565b8063346de50a146102a857806342842e0e146102d3578063453c2310146102fc57610181565b806301ffc9a71461018657806306fdde03146101c3578063081812fc146101ee578063095ea7b31461022b57806318160ddd1461025457806323b872dd1461027f575b600080fd5b34801561019257600080fd5b506101ad60048036038101906101a89190611ead565b61061d565b6040516101ba9190611ef5565b60405180910390f35b3480156101cf57600080fd5b506101d86106ff565b6040516101e59190611fa0565b60405180910390f35b3480156101fa57600080fd5b5061021560048036038101906102109190611ff8565b610791565b6040516102229190612066565b60405180910390f35b34801561023757600080fd5b50610252600480360381019061024d91906120ad565b6107d7565b005b34801561026057600080fd5b506102696108ee565b60405161027691906120fc565b60405180910390f35b34801561028b57600080fd5b506102a660048036038101906102a19190612117565b6108f4565b005b3480156102b457600080fd5b506102bd610954565b6040516102ca9190611ef5565b60405180910390f35b3480156102df57600080fd5b506102fa60048036038101906102f59190612117565b610967565b005b34801561030857600080fd5b50610311610987565b60405161031e91906120fc565b60405180910390f35b34801561033357600080fd5b5061033c61098d565b005b34801561034a57600080fd5b5061036560048036038101906103609190611ff8565b610a66565b6040516103729190612066565b60405180910390f35b34801561038757600080fd5b50610390610b17565b60405161039d91906120fc565b60405180910390f35b3480156103b257600080fd5b506103cd60048036038101906103c8919061216a565b610b1d565b6040516103da91906120fc565b60405180910390f35b3480156103ef57600080fd5b506103f8610bd4565b005b34801561040657600080fd5b5061040f610be8565b60405161041c91906121b8565b60405180910390f35b34801561043157600080fd5b5061043a610c0e565b6040516104479190612066565b60405180910390f35b34801561045c57600080fd5b50610465610c38565b6040516104729190611fa0565b60405180910390f35b61049560048036038101906104909190611ff8565b610cca565b005b3480156104a357600080fd5b506104be60048036038101906104b991906121ff565b610ea1565b005b3480156104cc57600080fd5b506104e760048036038101906104e29190612374565b610eb7565b005b3480156104f557600080fd5b50610510600480360381019061050b9190611ff8565b610f19565b60405161051d9190611fa0565b60405180910390f35b34801561053257600080fd5b5061053b610f81565b60405161054891906120fc565b60405180910390f35b34801561055d57600080fd5b50610578600480360381019061057391906123f7565b610f87565b6040516105859190611ef5565b60405180910390f35b34801561059a57600080fd5b506105b560048036038101906105b0919061216a565b61101b565b6040516105c291906120fc565b60405180910390f35b3480156105d757600080fd5b506105f260048036038101906105ed919061216a565b611033565b005b34801561060057600080fd5b5061061b60048036038101906106169190612437565b6110b6565b005b60007f80ac58cd000000000000000000000000000000000000000000000000000000007bffffffffffffffffffffffffffffffffffffffffffffffffffffffff1916827bffffffffffffffffffffffffffffffffffffffffffffffffffffffff191614806106e857507f5b5e139f000000000000000000000000000000000000000000000000000000007bffffffffffffffffffffffffffffffffffffffffffffffffffffffff1916827bffffffffffffffffffffffffffffffffffffffffffffffffffffffff1916145b806106f857506106f7826110db565b5b9050919050565b60606000805461070e90612493565b80601f016020809104026020016040519081016040528092919081815260200182805461073a90612493565b80156107875780601f1061075c57610100808354040283529160200191610787565b820191906000526020600020905b81548152906001019060200180831161076a57829003601f168201915b5050505050905090565b600061079c82611145565b6004600083815260200190815260200160002060009054906101000a900473ffffffffffffffffffffffffffffffffffffffff169050919050565b60006107e282610a66565b90508073ffffffffffffffffffffffffffffffffffffffff168373ffffffffffffffffffffffffffffffffffffffff1603610852576040517f08c379a000000000000000000000000000000000000000000000000000000000815260040161084990612536565b60405180910390fd5b8073ffffffffffffffffffffffffffffffffffffffff16610871611190565b73ffffffffffffffffffffffffffffffffffffffff1614806108a0575061089f8161089a611190565b610f87565b5b6108df576040517f08c379a00000000000000000000000000000000000000000000000000000000081526004016108d6906125c8565b60405180910390fd5b6108e98383611198565b505050565b60085481565b6109056108ff611190565b82611251565b610944576040517f08c379a000000000000000000000000000000000000000000000000000000000815260040161093b9061265a565b60405180910390fd5b61094f8383836112e6565b505050565b600b60009054906101000a900460ff1681565b61098283838360405180602001604052806000815250610eb7565b505050565b600a5481565b61099561154c565b6000600b60019054906101000a900473ffffffffffffffffffffffffffffffffffffffff1673ffffffffffffffffffffffffffffffffffffffff16476040516109dd906126ab565b60006040518083038185875af1925050503d8060008114610a1a576040519150601f19603f3d011682016040523d82523d6000602084013e610a1f565b606091505b5050905080610a63576040517f08c379a0000000000000000000000000000000000000000000000000000000008152600401610a5a9061270c565b60405180910390fd5b50565b6000806002600084815260200190815260200160002060009054906101000a900473ffffffffffffffffffffffffffffffffffffffff169050600073ffffffffffffffffffffffffffffffffffffffff168173ffffffffffffffffffffffffffffffffffffffff1603610b0e576040517f08c379a0000000000000000000000000000000000000000000000000000000008152600401610b0590612778565b60405180910390fd5b80915050919050565b60075481565b60008073ffffffffffffffffffffffffffffffffffffffff168273ffffffffffffffffffffffffffffffffffffffff1603610b8d576040517f08c379a0000000000000000000000000000000000000000000000000000000008152600401610b849061280a565b60405180910390fd5b600360008373ffffffffffffffffffffffffffffffffffffffff1673ffffffffffffffffffffffffffffffffffffffff168152602001908152602001600020549050919050565b610bdc61154c565b610be660006115ca565b565b600b60019054906101000a900473ffffffffffffffffffffffffffffffffffffffff1681565b6000600660009054906101000a900473ffffffffffffffffffffffffffffffffffffffff16905090565b606060018054610c4790612493565b80601f0160208091040260200160405190810160405280929190818152602001828054610c7390612493565b8015610cc05780601f10610c9557610100808354040283529160200191610cc0565b820191906000526020600020905b815481529060010190602001808311610ca357829003601f168201915b5050505050905090565b600b60009054906101000a900460ff16610d19576040517f08c379a0000000000000000000000000000000000000000000000000000000008152600401610d1090612876565b60405180910390fd5b60095481600854610d2a91906128c5565b1115610d6b576040517f08c379a0000000000000000000000000000000000000000000000000000000008152600401610d6290612945565b60405180910390fd5b60075481610d799190612965565b3414610dba576040517f08c379a0000000000000000000000000000000000000000000000000000000008152600401610db1906129f3565b60405180910390fd5b600a5481600c60003373ffffffffffffffffffffffffffffffffffffffff1673ffffffffffffffffffffffffffffffffffffffff16815260200190815260200160002054610e0891906128c5565b1115610e49576040517f08c379a0000000000000000000000000000000000000000000000000000000008152600401610e4090612a5f565b60405180910390fd5b60005b81811015610e9d5760006001600854610e6591906128c5565b905060086000815480929190610e7a90612a7f565b9190505550610e893382611690565b508080610e9590612a7f565b915050610e4c565b5050565b610eb3610eac611190565b83836116ae565b5050565b610ec8610ec2611190565b83611251565b610f07576040517f08c379a0000000000000000000000000000000000000000000000000000000008152600401610efe9061265a565b60405180910390fd5b610f138484848461181a565b50505050565b6060610f2482611145565b6000610f2e611876565b90506000815111610f4e5760405180602001604052806000815250610f79565b80610f588461188d565b604051602001610f69929190612b03565b6040516020818303038152906040525b915050919050565b60095481565b6000600560008473ffffffffffffffffffffffffffffffffffffffff1673ffffffffffffffffffffffffffffffffffffffff16815260200190815260200160002060008373ffffffffffffffffffffffffffffffffffffffff1673ffffffffffffffffffffffffffffffffffffffff16815260200190815260200160002060009054906101000a900460ff16905092915050565b600c6020528060005260406000206000915090505481565b61103b61154c565b600073ffffffffffffffffffffffffffffffffffffffff168173ffffffffffffffffffffffffffffffffffffffff16036110aa576040517f08c379a00000000000000000000000000000000000000000000000000000000081526004016110a190612b99565b60405180910390fd5b6110b3816115ca565b50565b6110be61154c565b80600b60006101000a81548160ff02191690831515021790555050565b60007f01ffc9a7000000000000000000000000000000000000000000000000000000007bffffffffffffffffffffffffffffffffffffffffffffffffffffffff1916827bffffffffffffffffffffffffffffffffffffffffffffffffffffffff1916149050919050565b61114e816119ed565b61118d576040517f08c379a000000000000000000000000000000000000000000000000000000000815260040161118490612778565b60405180910390fd5b50565b600033905090565b816004600083815260200190815260200160002060006101000a81548173ffffffffffffffffffffffffffffffffffffffff021916908373ffffffffffffffffffffffffffffffffffffffff160217905550808273ffffffffffffffffffffffffffffffffffffffff1661120b83610a66565b73ffffffffffffffffffffffffffffffffffffffff167f8c5be1e5ebec7d5bd14f71427d1e84f3dd0314c0f7b2291e5b200ac8c7c3b92560405160405180910390a45050565b60008061125d83610a66565b90508073ffffffffffffffffffffffffffffffffffffffff168473ffffffffffffffffffffffffffffffffffffffff16148061129f575061129e8185610f87565b5b806112dd57508373ffffffffffffffffffffffffffffffffffffffff166112c584610791565b73ffffffffffffffffffffffffffffffffffffffff16145b91505092915050565b8273ffffffffffffffffffffffffffffffffffffffff1661130682610a66565b73ffffffffffffffffffffffffffffffffffffffff161461135c576040517f08c379a000000000000000000000000000000000000000000000000000000000815260040161135390612c2b565b60405180910390fd5b600073ffffffffffffffffffffffffffffffffffffffff168273ffffffffffffffffffffffffffffffffffffffff16036113cb576040517f08c379a00000000000000000000000000000000000000000000000000000000081526004016113c290612cbd565b60405180910390fd5b6113d6838383611a59565b6113e1600082611198565b6001600360008573ffffffffffffffffffffffffffffffffffffffff1673ffffffffffffffffffffffffffffffffffffffff16815260200190815260200160002060008282546114319190612cdd565b925050819055506001600360008473ffffffffffffffffffffffffffffffffffffffff1673ffffffffffffffffffffffffffffffffffffffff168152602001908152602001600020600082825461148891906128c5565b92505081905550816002600083815260200190815260200160002060006101000a81548173ffffffffffffffffffffffffffffffffffffffff021916908373ffffffffffffffffffffffffffffffffffffffff160217905550808273ffffffffffffffffffffffffffffffffffffffff168473ffffffffffffffffffffffffffffffffffffffff167fddf252ad1be2c89b69c2b068fc378daa952ba7f163c4a11628f55a4df523b3ef60405160405180910390a4611547838383611a5e565b505050565b611554611190565b73ffffffffffffffffffffffffffffffffffffffff16611572610c0e565b73ffffffffffffffffffffffffffffffffffffffff16146115c8576040517f08c379a00000000000000000000000000000000000000000000000000000000081526004016115bf90612d5d565b60405180910390fd5b565b6000600660009054906101000a900473ffffffffffffffffffffffffffffffffffffffff16905081600660006101000a81548173ffffffffffffffffffffffffffffffffffffffff021916908373ffffffffffffffffffffffffffffffffffffffff1602179055508173ffffffffffffffffffffffffffffffffffffffff168173ffffffffffffffffffffffffffffffffffffffff167f8be0079c531659141344cd1fd0a4f28419497f9722a3daafe3b4186f6b6457e060405160405180910390a35050565b6116aa828260405180602001604052806000815250611a63565b5050565b8173ffffffffffffffffffffffffffffffffffffffff168373ffffffffffffffffffffffffffffffffffffffff160361171c576040517f08c379a000000000000000000000000000000000000000000000000000000000815260040161171390612dc9565b60405180910390fd5b80600560008573ffffffffffffffffffffffffffffffffffffffff1673ffffffffffffffffffffffffffffffffffffffff16815260200190815260200160002060008473ffffffffffffffffffffffffffffffffffffffff1673ffffffffffffffffffffffffffffffffffffffff16815260200190815260200160002060006101000a81548160ff0219169083151502179055508173ffffffffffffffffffffffffffffffffffffffff168373ffffffffffffffffffffffffffffffffffffffff167f17307eab39ab6107e8899845ad3d59bd9653f200f220920489ca2b5937696c318360405161180d9190611ef5565b60405180910390a3505050565b6118258484846112e6565b61183184848484611abe565b611870576040517f08c379a000000000000000000000000000000000000000000000000000000000815260040161186790612e5b565b60405180910390fd5b50505050565b606060405180602001604052806000815250905090565b6060600082036118d4576040518060400160405280600181526020017f300000000000000000000000000000000000000000000000000000000000000081525090506119e8565b600082905060005b600082146119065780806118ef90612a7f565b915050600a826118ff9190612eaa565b91506118dc565b60008167ffffffffffffffff81111561192257611921612249565b5b6040519080825280601f01601f1916602001820160405280156119545781602001600182028036833780820191505090505b5090505b600085146119e15760018261196d9190612cdd565b9150600a8561197c9190612edb565b603061198891906128c5565b60f81b81838151811061199e5761199d612f0c565b5b60200101907effffffffffffffffffffffffffffffffffffffffffffffffffffffffffffff1916908160001a905350600a856119da9190612eaa565b9450611958565b8093505050505b919050565b60008073ffffffffffffffffffffffffffffffffffffffff166002600084815260200190815260200160002060009054906101000a900473ffffffffffffffffffffffffffffffffffffffff1673ffffffffffffffffffffffffffffffffffffffff1614159050919050565b505050565b505050565b611a6d8383611c45565b611a7a6000848484611abe565b611ab9576040517f08c379a0000000000000000000000000000000000000000000000000000000008152600401611ab090612e5b565b60405180910390fd5b505050565b6000611adf8473ffffffffffffffffffffffffffffffffffffffff16611e1e565b15611c38578373ffffffffffffffffffffffffffffffffffffffff1663150b7a02611b08611190565b8786866040518563ffffffff1660e01b8152600401611b2a9493929190612f90565b6020604051808303816000875af1925050508015611b6657506040513d601f19601f82011682018060405250810190611b639190612ff1565b60015b611be8573d8060008114611b96576040519150601f19603f3d011682016040523d82523d6000602084013e611b9b565b606091505b506000815103611be0576040517f08c379a0000000000000000000000000000000000000000000000000000000008152600401611bd790612e5b565b60405180910390fd5b805181602001fd5b63150b7a0260e01b7bffffffffffffffffffffffffffffffffffffffffffffffffffffffff1916817bffffffffffffffffffffffffffffffffffffffffffffffffffffffff191614915050611c3d565b600190505b949350505050565b600073ffffffffffffffffffffffffffffffffffffffff168273ffffffffffffffffffffffffffffffffffffffff1603611cb4576040517f08c379a0000000000000000000000000000000000000000000000000000000008152600401611cab9061306a565b60405180910390fd5b611cbd816119ed565b15611cfd576040517f08c379a0000000000000000000000000000000000000000000000000000000008152600401611cf4906130d6565b60405180910390fd5b611d0960008383611a59565b6001600360008473ffffffffffffffffffffffffffffffffffffffff1673ffffffffffffffffffffffffffffffffffffffff1681526020019081526020016000206000828254611d5991906128c5565b92505081905550816002600083815260200190815260200160002060006101000a81548173ffffffffffffffffffffffffffffffffffffffff021916908373ffffffffffffffffffffffffffffffffffffffff160217905550808273ffffffffffffffffffffffffffffffffffffffff16600073ffffffffffffffffffffffffffffffffffffffff167fddf252ad1be2c89b69c2b068fc378daa952ba7f163c4a11628f55a4df523b3ef60405160405180910390a4611e1a60008383611a5e565b5050565b6000808273ffffffffffffffffffffffffffffffffffffffff163b119050919050565b6000604051905090565b600080fd5b600080fd5b60007fffffffff0000000000000000000000000000000000000000000000000000000082169050919050565b611e8a81611e55565b8114611e9557600080fd5b50565b600081359050611ea781611e81565b92915050565b600060208284031215611ec357611ec2611e4b565b5b6000611ed184828501611e98565b91505092915050565b60008115159050919050565b611eef81611eda565b82525050565b6000602082019050611f0a6000830184611ee6565b92915050565b600081519050919050565b600082825260208201905092915050565b60005b83811015611f4a578082015181840152602081019050611f2f565b60008484015250505050565b6000601f19601f8301169050919050565b6000611f7282611f10565b611f7c8185611f1b565b9350611f8c818560208601611f2c565b611f9581611f56565b840191505092915050565b60006020820190508181036000830152611fba8184611f67565b905092915050565b6000819050919050565b611fd581611fc2565b8114611fe057600080fd5b50565b600081359050611ff281611fcc565b92915050565b60006020828403121561200e5761200d611e4b565b5b600061201c84828501611fe3565b91505092915050565b600073ffffffffffffffffffffffffffffffffffffffff82169050919050565b600061205082612025565b9050919050565b61206081612045565b82525050565b600060208201905061207b6000830184612057565b92915050565b61208a81612045565b811461209557600080fd5b50565b6000813590506120a781612081565b92915050565b600080604083850312156120c4576120c3611e4b565b5b60006120d285828601612098565b92505060206120e385828601611fe3565b9150509250929050565b6120f681611fc2565b82525050565b600060208201905061211160008301846120ed565b92915050565b6000806000606084860312156121305761212f611e4b565b5b600061213e86828701612098565b935050602061214f86828701612098565b925050604061216086828701611fe3565b9150509250925092565b6000602082840312156121805761217f611e4b565b5b600061218e84828501612098565b91505092915050565b60006121a282612025565b9050919050565b6121b281612197565b82525050565b60006020820190506121cd60008301846121a9565b92915050565b6121dc81611eda565b81146121e757600080fd5b50565b6000813590506121f9816121d3565b92915050565b6000806040838503121561221657612215611e4b565b5b600061222485828601612098565b9250506020612235858286016121ea565b9150509250929050565b600080fd5b600080fd5b7f4e487b7100000000000000000000000000000000000000000000000000000000600052604160045260246000fd5b61228182611f56565b810181811067ffffffffffffffff821117156122a05761229f612249565b5b80604052505050565b60006122b3611e41565b90506122bf8282612278565b919050565b600067ffffffffffffffff8211156122df576122de612249565b5b6122e882611f56565b9050602081019050919050565b82818337600083830152505050565b6000612317612312846122c4565b6122a9565b90508281526020810184848401111561233357612332612244565b5b61233e8482856122f5565b509392505050565b600082601f83011261235b5761235a61223f565b5b813561236b848260208601612304565b91505092915050565b6000806000806080858703121561238e5761238d611e4b565b5b600061239c87828801612098565b94505060206123ad87828801612098565b93505060406123be87828801611fe3565b925050606085013567ffffffffffffffff8111156123df576123de611e50565b5b6123eb87828801612346565b91505092959194509250565b6000806040838503121561240e5761240d611e4b565b5b600061241c85828601612098565b925050602061242d85828601612098565b9150509250929050565b60006020828403121561244d5761244c611e4b565b5b600061245b848285016121ea565b91505092915050565b7f4e487b7100000000000000000000000000000000000000000000000000000000600052602260045260246000fd5b600060028204905060018216806124ab57607f821691505b6020821081036124be576124bd612464565b5b50919050565b7f4552433732313a20617070726f76616c20746f2063757272656e74206f776e6560008201527f7200000000000000000000000000000000000000000000000000000000000000602082015250565b6000612520602183611f1b565b915061252b826124c4565b604082019050919050565b6000602082019050818103600083015261254f81612513565b9050919050565b7f4552433732313a20617070726f76652063616c6c6572206973206e6f7420746f60008201527f6b656e206f776e6572206e6f7220617070726f76656420666f7220616c6c0000602082015250565b60006125b2603e83611f1b565b91506125bd82612556565b604082019050919050565b600060208201905081810360008301526125e1816125a5565b9050919050565b7f4552433732313a2063616c6c6572206973206e6f7420746f6b656e206f776e6560008201527f72206e6f7220617070726f766564000000000000000000000000000000000000602082015250565b6000612644602e83611f1b565b915061264f826125e8565b604082019050919050565b6000602082019050818103600083015261267381612637565b9050919050565b600081905092915050565b50565b600061269560008361267a565b91506126a082612685565b600082019050919050565b60006126b682612688565b9150819050919050565b7f5769746864726177206661696c65642100000000000000000000000000000000600082015250565b60006126f6601083611f1b565b9150612701826126c0565b602082019050919050565b60006020820190508181036000830152612725816126e9565b9050919050565b7f4552433732313a20696e76616c696420746f6b656e2049440000000000000000600082015250565b6000612762601883611f1b565b915061276d8261272c565b602082019050919050565b6000602082019050818103600083015261279181612755565b9050919050565b7f4552433732313a2061646472657373207a65726f206973206e6f74206120766160008201527f6c6964206f776e65720000000000000000000000000000000000000000000000602082015250565b60006127f4602983611f1b565b91506127ff82612798565b604082019050919050565b60006020820190508181036000830152612823816127e7565b9050919050565b7f4d696e74206973206e6f742079657420617661696c61626c6521000000000000600082015250565b6000612860601a83611f1b565b915061286b8261282a565b602082019050919050565b6000602082019050818103600083015261288f81612853565b9050919050565b7f4e487b7100000000000000000000000000000000000000000000000000000000600052601160045260246000fd5b60006128d082611fc2565b91506128db83611fc2565b92508282019050808211156128f3576128f2612896565b5b92915050565b7f4d617820737570706c7920726561636865642100000000000000000000000000600082015250565b600061292f601383611f1b565b915061293a826128f9565b602082019050919050565b6000602082019050818103600083015261295e81612922565b9050919050565b600061297082611fc2565b915061297b83611fc2565b925082820261298981611fc2565b915082820484148315176129a05761299f612896565b5b5092915050565b7f57726f6e67204d696e742056616c756500000000000000000000000000000000600082015250565b60006129dd601083611f1b565b91506129e8826129a7565b602082019050919050565b60006020820190508181036000830152612a0c816129d0565b9050919050565b7f43616e6e6f74206d696e74206d6f7265207468616e2032210000000000000000600082015250565b6000612a49601883611f1b565b9150612a5482612a13565b602082019050919050565b60006020820190508181036000830152612a7881612a3c565b9050919050565b6000612a8a82611fc2565b91507fffffffffffffffffffffffffffffffffffffffffffffffffffffffffffffffff8203612abc57612abb612896565b5b600182019050919050565b600081905092915050565b6000612add82611f10565b612ae78185612ac7565b9350612af7818560208601611f2c565b80840191505092915050565b6000612b0f8285612ad2565b9150612b1b8284612ad2565b91508190509392505050565b7f4f776e61626c653a206e6577206f776e657220697320746865207a65726f206160008201527f6464726573730000000000000000000000000000000000000000000000000000602082015250565b6000612b83602683611f1b565b9150612b8e82612b27565b604082019050919050565b60006020820190508181036000830152612bb281612b76565b9050919050565b7f4552433732313a207472616e736665722066726f6d20696e636f72726563742060008201527f6f776e6572000000000000000000000000000000000000000000000000000000602082015250565b6000612c15602583611f1b565b9150612c2082612bb9565b604082019050919050565b60006020820190508181036000830152612c4481612c08565b9050919050565b7f4552433732313a207472616e7366657220746f20746865207a65726f2061646460008201527f7265737300000000000000000000000000000000000000000000000000000000602082015250565b6000612ca7602483611f1b565b9150612cb282612c4b565b604082019050919050565b60006020820190508181036000830152612cd681612c9a565b9050919050565b6000612ce882611fc2565b9150612cf383611fc2565b9250828203905081811115612d0b57612d0a612896565b5b92915050565b7f4f776e61626c653a2063616c6c6572206973206e6f7420746865206f776e6572600082015250565b6000612d47602083611f1b565b9150612d5282612d11565b602082019050919050565b60006020820190508181036000830152612d7681612d3a565b9050919050565b7f4552433732313a20617070726f766520746f2063616c6c657200000000000000600082015250565b6000612db3601983611f1b565b9150612dbe82612d7d565b602082019050919050565b60006020820190508181036000830152612de281612da6565b9050919050565b7f4552433732313a207472616e7366657220746f206e6f6e20455243373231526560008201527f63656976657220696d706c656d656e7465720000000000000000000000000000602082015250565b6000612e45603283611f1b565b9150612e5082612de9565b604082019050919050565b60006020820190508181036000830152612e7481612e38565b9050919050565b7f4e487b7100000000000000000000000000000000000000000000000000000000600052601260045260246000fd5b6000612eb582611fc2565b9150612ec083611fc2565b925082612ed057612ecf612e7b565b5b828204905092915050565b6000612ee682611fc2565b9150612ef183611fc2565b925082612f0157612f00612e7b565b5b828206905092915050565b7f4e487b7100000000000000000000000000000000000000000000000000000000600052603260045260246000fd5b600081519050919050565b600082825260208201905092915050565b6000612f6282612f3b565b612f6c8185612f46565b9350612f7c818560208601611f2c565b612f8581611f56565b840191505092915050565b6000608082019050612fa56000830187612057565b612fb26020830186612057565b612fbf60408301856120ed565b8181036060830152612fd18184612f57565b905095945050505050565b600081519050612feb81611e81565b92915050565b60006020828403121561300757613006611e4b565b5b600061301584828501612fdc565b91505092915050565b7f4552433732313a206d696e7420746f20746865207a65726f2061646472657373600082015250565b6000613054602083611f1b565b915061305f8261301e565b602082019050919050565b6000602082019050818103600083015261308381613047565b9050919050565b7f4552433732313a20746f6b656e20616c7265616479206d696e74656400000000600082015250565b60006130c0601c83611f1b565b91506130cb8261308a565b602082019050919050565b600060208201905081810360008301526130ef816130b3565b905091905056fea26469706673582212201276e5c4b5281f7d72c04ad8736def7aa2e896d183bb84c51fe719a32fa92b1864736f6c63430008110033",
    "linkReferences": {},
    "deployedLinkReferences": {}
}